{
  "_format": "hh3-artifact-1",
  "contractName": "DocumentMarketplace",
  "sourceName": "contracts/DocumentMarketplace.sol",
  "abi": [
    {
      "inputs": [
        {
          "internalType": "string",
          "name": "name_",
          "type": "string"
        },
        {
          "internalType": "string",
          "name": "symbol_",
          "type": "string"
        },
        {
          "internalType": "address",
          "name": "_feeRecipient",
          "type": "address"
        },
        {
          "internalType": "uint16",
          "name": "_marketplaceFeeBps",
          "type": "uint16"
        }
      ],
      "stateMutability": "nonpayable",
      "type": "constructor"
    },
    {
      "inputs": [],
      "name": "ERC721EnumerableForbiddenBatchMint",
      "type": "error"
    },
    {
      "inputs": [
        {
          "internalType": "address",
          "name": "sender",
          "type": "address"
        },
        {
          "internalType": "uint256",
          "name": "tokenId",
          "type": "uint256"
        },
        {
          "internalType": "address",
          "name": "owner",
          "type": "address"
        }
      ],
      "name": "ERC721IncorrectOwner",
      "type": "error"
    },
    {
      "inputs": [
        {
          "internalType": "address",
          "name": "operator",
          "type": "address"
        },
        {
          "internalType": "uint256",
          "name": "tokenId",
          "type": "uint256"
        }
      ],
      "name": "ERC721InsufficientApproval",
      "type": "error"
    },
    {
      "inputs": [
        {
          "internalType": "address",
          "name": "approver",
          "type": "address"
        }
      ],
      "name": "ERC721InvalidApprover",
      "type": "error"
    },
    {
      "inputs": [
        {
          "internalType": "address",
          "name": "operator",
          "type": "address"
        }
      ],
      "name": "ERC721InvalidOperator",
      "type": "error"
    },
    {
      "inputs": [
        {
          "internalType": "address",
          "name": "owner",
          "type": "address"
        }
      ],
      "name": "ERC721InvalidOwner",
      "type": "error"
    },
    {
      "inputs": [
        {
          "internalType": "address",
          "name": "receiver",
          "type": "address"
        }
      ],
      "name": "ERC721InvalidReceiver",
      "type": "error"
    },
    {
      "inputs": [
        {
          "internalType": "address",
          "name": "sender",
          "type": "address"
        }
      ],
      "name": "ERC721InvalidSender",
      "type": "error"
    },
    {
      "inputs": [
        {
          "internalType": "uint256",
          "name": "tokenId",
          "type": "uint256"
        }
      ],
      "name": "ERC721NonexistentToken",
      "type": "error"
    },
    {
      "inputs": [
        {
          "internalType": "address",
          "name": "owner",
          "type": "address"
        },
        {
          "internalType": "uint256",
          "name": "index",
          "type": "uint256"
        }
      ],
      "name": "ERC721OutOfBoundsIndex",
      "type": "error"
    },
    {
      "inputs": [],
      "name": "FailedCall",
      "type": "error"
    },
    {
      "inputs": [
        {
          "internalType": "uint256",
          "name": "balance",
          "type": "uint256"
        },
        {
          "internalType": "uint256",
          "name": "needed",
          "type": "uint256"
        }
      ],
      "name": "InsufficientBalance",
      "type": "error"
    },
    {
      "inputs": [
        {
          "internalType": "address",
          "name": "owner",
          "type": "address"
        }
      ],
      "name": "OwnableInvalidOwner",
      "type": "error"
    },
    {
      "inputs": [
        {
          "internalType": "address",
          "name": "account",
          "type": "address"
        }
      ],
      "name": "OwnableUnauthorizedAccount",
      "type": "error"
    },
    {
      "inputs": [],
      "name": "ReentrancyGuardReentrantCall",
      "type": "error"
    },
    {
      "anonymous": false,
      "inputs": [
        {
          "indexed": true,
          "internalType": "address",
          "name": "owner",
          "type": "address"
        },
        {
          "indexed": true,
          "internalType": "address",
          "name": "approved",
          "type": "address"
        },
        {
          "indexed": true,
          "internalType": "uint256",
          "name": "tokenId",
          "type": "uint256"
        }
      ],
      "name": "Approval",
      "type": "event"
    },
    {
      "anonymous": false,
      "inputs": [
        {
          "indexed": true,
          "internalType": "address",
          "name": "owner",
          "type": "address"
        },
        {
          "indexed": true,
          "internalType": "address",
          "name": "operator",
          "type": "address"
        },
        {
          "indexed": false,
          "internalType": "bool",
          "name": "approved",
          "type": "bool"
        }
      ],
      "name": "ApprovalForAll",
      "type": "event"
    },
    {
      "anonymous": false,
      "inputs": [
        {
          "indexed": true,
          "internalType": "uint256",
          "name": "tokenId",
          "type": "uint256"
        }
      ],
      "name": "Delisted",
      "type": "event"
    },
    {
      "anonymous": false,
      "inputs": [
        {
          "indexed": true,
          "internalType": "uint256",
          "name": "tokenId",
          "type": "uint256"
        },
        {
          "indexed": true,
          "internalType": "address",
          "name": "creator",
          "type": "address"
        },
        {
          "indexed": false,
          "internalType": "string",
          "name": "uri",
          "type": "string"
        },
        {
          "indexed": false,
          "internalType": "uint16",
          "name": "royaltyBps",
          "type": "uint16"
        }
      ],
      "name": "DocumentMinted",
      "type": "event"
    },
    {
      "anonymous": false,
      "inputs": [
        {
          "indexed": true,
          "internalType": "uint256",
          "name": "tokenId",
          "type": "uint256"
        },
        {
          "indexed": true,
          "internalType": "address",
          "name": "buyer",
          "type": "address"
        },
        {
          "indexed": false,
          "internalType": "uint256",
          "name": "price",
          "type": "uint256"
        }
      ],
      "name": "DocumentSold",
      "type": "event"
    },
    {
      "anonymous": false,
      "inputs": [
        {
          "indexed": true,
          "internalType": "uint256",
          "name": "tokenId",
          "type": "uint256"
        },
        {
          "indexed": false,
          "internalType": "uint256",
          "name": "price",
          "type": "uint256"
        }
      ],
      "name": "ListedForSale",
      "type": "event"
    },
    {
      "anonymous": false,
      "inputs": [
        {
          "indexed": false,
          "internalType": "uint16",
          "name": "newFeeBps",
          "type": "uint16"
        },
        {
          "indexed": false,
          "internalType": "address",
          "name": "newRecipient",
          "type": "address"
        }
      ],
      "name": "MarketplaceFeeUpdated",
      "type": "event"
    },
    {
      "anonymous": false,
      "inputs": [
        {
          "indexed": true,
          "internalType": "address",
          "name": "previousOwner",
          "type": "address"
        },
        {
          "indexed": true,
          "internalType": "address",
          "name": "newOwner",
          "type": "address"
        }
      ],
      "name": "OwnershipTransferred",
      "type": "event"
    },
    {
      "anonymous": false,
      "inputs": [
        {
          "indexed": true,
          "internalType": "uint256",
          "name": "tokenId",
          "type": "uint256"
        },
        {
          "indexed": false,
          "internalType": "uint256",
          "name": "newPrice",
          "type": "uint256"
        }
      ],
      "name": "PriceUpdated",
      "type": "event"
    },
    {
      "anonymous": false,
      "inputs": [
        {
          "indexed": true,
          "internalType": "address",
          "name": "seller",
          "type": "address"
        },
        {
          "indexed": false,
          "internalType": "uint256",
          "name": "amount",
          "type": "uint256"
        }
      ],
      "name": "ProceedsWithdrawn",
      "type": "event"
    },
    {
      "anonymous": false,
      "inputs": [
        {
          "indexed": true,
          "internalType": "address",
          "name": "from",
          "type": "address"
        },
        {
          "indexed": true,
          "internalType": "address",
          "name": "to",
          "type": "address"
        },
        {
          "indexed": true,
          "internalType": "uint256",
          "name": "tokenId",
          "type": "uint256"
        }
      ],
      "name": "Transfer",
      "type": "event"
    },
    {
      "inputs": [
        {
          "internalType": "address",
          "name": "to",
          "type": "address"
        },
        {
          "internalType": "uint256",
          "name": "tokenId",
          "type": "uint256"
        }
      ],
      "name": "approve",
      "outputs": [],
      "stateMutability": "nonpayable",
      "type": "function"
    },
    {
      "inputs": [
        {
          "internalType": "address",
          "name": "owner",
          "type": "address"
        }
      ],
      "name": "balanceOf",
      "outputs": [
        {
          "internalType": "uint256",
          "name": "",
          "type": "uint256"
        }
      ],
      "stateMutability": "view",
      "type": "function"
    },
    {
      "inputs": [
        {
          "internalType": "uint256",
          "name": "tokenId",
          "type": "uint256"
        }
      ],
      "name": "buy",
      "outputs": [],
      "stateMutability": "payable",
      "type": "function"
    },
    {
      "inputs": [
        {
          "internalType": "uint256",
          "name": "tokenId",
          "type": "uint256"
        }
      ],
      "name": "delist",
      "outputs": [],
      "stateMutability": "nonpayable",
      "type": "function"
    },
    {
      "inputs": [
        {
          "internalType": "uint256",
          "name": "",
          "type": "uint256"
        }
      ],
      "name": "documents",
      "outputs": [
        {
          "internalType": "string",
          "name": "uri",
          "type": "string"
        },
        {
          "internalType": "address",
          "name": "creator",
          "type": "address"
        },
        {
          "internalType": "uint16",
          "name": "royaltyBps",
          "type": "uint16"
        },
        {
          "internalType": "bool",
          "name": "forSale",
          "type": "bool"
        },
        {
          "internalType": "uint256",
          "name": "price",
          "type": "uint256"
        }
      ],
      "stateMutability": "view",
      "type": "function"
    },
    {
      "inputs": [],
      "name": "feeRecipient",
      "outputs": [
        {
          "internalType": "address",
          "name": "",
          "type": "address"
        }
      ],
      "stateMutability": "view",
      "type": "function"
    },
    {
      "inputs": [
        {
          "internalType": "uint256",
          "name": "tokenId",
          "type": "uint256"
        }
      ],
      "name": "getApproved",
      "outputs": [
        {
          "internalType": "address",
          "name": "",
          "type": "address"
        }
      ],
      "stateMutability": "view",
      "type": "function"
    },
    {
      "inputs": [
        {
          "internalType": "address",
          "name": "owner",
          "type": "address"
        },
        {
          "internalType": "address",
          "name": "operator",
          "type": "address"
        }
      ],
      "name": "isApprovedForAll",
      "outputs": [
        {
          "internalType": "bool",
          "name": "",
          "type": "bool"
        }
      ],
      "stateMutability": "view",
      "type": "function"
    },
    {
      "inputs": [
        {
          "internalType": "uint256",
          "name": "tokenId",
          "type": "uint256"
        },
        {
          "internalType": "uint256",
          "name": "price",
          "type": "uint256"
        }
      ],
      "name": "listForSale",
      "outputs": [],
      "stateMutability": "nonpayable",
      "type": "function"
    },
    {
      "inputs": [],
      "name": "marketplaceFeeBps",
      "outputs": [
        {
          "internalType": "uint16",
          "name": "",
          "type": "uint16"
        }
      ],
      "stateMutability": "view",
      "type": "function"
    },
    {
      "inputs": [
        {
          "internalType": "string",
          "name": "uri_",
          "type": "string"
        },
        {
          "internalType": "uint16",
          "name": "royaltyBps_",
          "type": "uint16"
        },
        {
          "internalType": "uint256",
          "name": "listPrice_",
          "type": "uint256"
        }
      ],
      "name": "mintDocument",
      "outputs": [
        {
          "internalType": "uint256",
          "name": "",
          "type": "uint256"
        }
      ],
      "stateMutability": "nonpayable",
      "type": "function"
    },
    {
      "inputs": [],
      "name": "name",
      "outputs": [
        {
          "internalType": "string",
          "name": "",
          "type": "string"
        }
      ],
      "stateMutability": "view",
      "type": "function"
    },
    {
      "inputs": [],
      "name": "owner",
      "outputs": [
        {
          "internalType": "address",
          "name": "",
          "type": "address"
        }
      ],
      "stateMutability": "view",
      "type": "function"
    },
    {
      "inputs": [
        {
          "internalType": "uint256",
          "name": "tokenId",
          "type": "uint256"
        }
      ],
      "name": "ownerOf",
      "outputs": [
        {
          "internalType": "address",
          "name": "",
          "type": "address"
        }
      ],
      "stateMutability": "view",
      "type": "function"
    },
    {
      "inputs": [
        {
          "internalType": "address",
          "name": "",
          "type": "address"
        }
      ],
      "name": "proceeds",
      "outputs": [
        {
          "internalType": "uint256",
          "name": "",
          "type": "uint256"
        }
      ],
      "stateMutability": "view",
      "type": "function"
    },
    {
      "inputs": [],
      "name": "renounceOwnership",
      "outputs": [],
      "stateMutability": "nonpayable",
      "type": "function"
    },
    {
      "inputs": [
        {
          "internalType": "address",
          "name": "from",
          "type": "address"
        },
        {
          "internalType": "address",
          "name": "to",
          "type": "address"
        },
        {
          "internalType": "uint256",
          "name": "tokenId",
          "type": "uint256"
        }
      ],
      "name": "safeTransferFrom",
      "outputs": [],
      "stateMutability": "nonpayable",
      "type": "function"
    },
    {
      "inputs": [
        {
          "internalType": "address",
          "name": "from",
          "type": "address"
        },
        {
          "internalType": "address",
          "name": "to",
          "type": "address"
        },
        {
          "internalType": "uint256",
          "name": "tokenId",
          "type": "uint256"
        },
        {
          "internalType": "bytes",
          "name": "data",
          "type": "bytes"
        }
      ],
      "name": "safeTransferFrom",
      "outputs": [],
      "stateMutability": "nonpayable",
      "type": "function"
    },
    {
      "inputs": [
        {
          "internalType": "address",
          "name": "operator",
          "type": "address"
        },
        {
          "internalType": "bool",
          "name": "approved",
          "type": "bool"
        }
      ],
      "name": "setApprovalForAll",
      "outputs": [],
      "stateMutability": "nonpayable",
      "type": "function"
    },
    {
      "inputs": [
        {
          "internalType": "uint16",
          "name": "_feeBps",
          "type": "uint16"
        },
        {
          "internalType": "address",
          "name": "_recipient",
          "type": "address"
        }
      ],
      "name": "setMarketplaceFee",
      "outputs": [],
      "stateMutability": "nonpayable",
      "type": "function"
    },
    {
      "inputs": [
        {
          "internalType": "bytes4",
          "name": "interfaceId",
          "type": "bytes4"
        }
      ],
      "name": "supportsInterface",
      "outputs": [
        {
          "internalType": "bool",
          "name": "",
          "type": "bool"
        }
      ],
      "stateMutability": "view",
      "type": "function"
    },
    {
      "inputs": [],
      "name": "symbol",
      "outputs": [
        {
          "internalType": "string",
          "name": "",
          "type": "string"
        }
      ],
      "stateMutability": "view",
      "type": "function"
    },
    {
      "inputs": [
        {
          "internalType": "uint256",
          "name": "index",
          "type": "uint256"
        }
      ],
      "name": "tokenByIndex",
      "outputs": [
        {
          "internalType": "uint256",
          "name": "",
          "type": "uint256"
        }
      ],
      "stateMutability": "view",
      "type": "function"
    },
    {
      "inputs": [
        {
          "internalType": "address",
          "name": "owner",
          "type": "address"
        },
        {
          "internalType": "uint256",
          "name": "index",
          "type": "uint256"
        }
      ],
      "name": "tokenOfOwnerByIndex",
      "outputs": [
        {
          "internalType": "uint256",
          "name": "",
          "type": "uint256"
        }
      ],
      "stateMutability": "view",
      "type": "function"
    },
    {
      "inputs": [
        {
          "internalType": "uint256",
          "name": "tokenId",
          "type": "uint256"
        }
      ],
      "name": "tokenURI",
      "outputs": [
        {
          "internalType": "string",
          "name": "",
          "type": "string"
        }
      ],
      "stateMutability": "view",
      "type": "function"
    },
    {
      "inputs": [],
      "name": "totalSupply",
      "outputs": [
        {
          "internalType": "uint256",
          "name": "",
          "type": "uint256"
        }
      ],
      "stateMutability": "view",
      "type": "function"
    },
    {
      "inputs": [
        {
          "internalType": "address",
          "name": "from",
          "type": "address"
        },
        {
          "internalType": "address",
          "name": "to",
          "type": "address"
        },
        {
          "internalType": "uint256",
          "name": "tokenId",
          "type": "uint256"
        }
      ],
      "name": "transferFrom",
      "outputs": [],
      "stateMutability": "nonpayable",
      "type": "function"
    },
    {
      "inputs": [
        {
          "internalType": "address",
          "name": "newOwner",
          "type": "address"
        }
      ],
      "name": "transferOwnership",
      "outputs": [],
      "stateMutability": "nonpayable",
      "type": "function"
    },
    {
      "inputs": [
        {
          "internalType": "uint256",
          "name": "tokenId",
          "type": "uint256"
        },
        {
          "internalType": "uint256",
          "name": "newPrice",
          "type": "uint256"
        }
      ],
      "name": "updatePrice",
      "outputs": [],
      "stateMutability": "nonpayable",
      "type": "function"
    },
    {
      "inputs": [],
      "name": "withdrawProceeds",
      "outputs": [],
      "stateMutability": "nonpayable",
      "type": "function"
    },
    {
      "stateMutability": "payable",
      "type": "receive"
    }
  ],
  "bytecode": "0x608060405234801561000f575f5ffd5b50604051614d0f380380614d0f833981810160405281019061003191906104a3565b338484815f9081610042919061074f565b508060019081610052919061074f565b5050505f73ffffffffffffffffffffffffffffffffffffffff168173ffffffffffffffffffffffffffffffffffffffff16036100c5575f6040517f1e4fbdf70000000000000000000000000000000000000000000000000000000081526004016100bc919061082d565b60405180910390fd5b6100d48161020260201b60201c565b506001600b819055505f73ffffffffffffffffffffffffffffffffffffffff168273ffffffffffffffffffffffffffffffffffffffff160361014b576040517f08c379a0000000000000000000000000000000000000000000000000000000008152600401610142906108a0565b60405180910390fd5b6103e88161ffff161115610194576040517f08c379a000000000000000000000000000000000000000000000000000000000815260040161018b90610908565b60405180910390fd5b81600c60026101000a81548173ffffffffffffffffffffffffffffffffffffffff021916908373ffffffffffffffffffffffffffffffffffffffff16021790555080600c5f6101000a81548161ffff021916908361ffff1602179055506001600f8190555050505050610926565b5f600a5f9054906101000a900473ffffffffffffffffffffffffffffffffffffffff16905081600a5f6101000a81548173ffffffffffffffffffffffffffffffffffffffff021916908373ffffffffffffffffffffffffffffffffffffffff1602179055508173ffffffffffffffffffffffffffffffffffffffff168173ffffffffffffffffffffffffffffffffffffffff167f8be0079c531659141344cd1fd0a4f28419497f9722a3daafe3b4186f6b6457e060405160405180910390a35050565b5f604051905090565b5f5ffd5b5f5ffd5b5f5ffd5b5f5ffd5b5f601f19601f8301169050919050565b7f4e487b71000000000000000000000000000000000000000000000000000000005f52604160045260245ffd5b610324826102de565b810181811067ffffffffffffffff82111715610343576103426102ee565b5b80604052505050565b5f6103556102c5565b9050610361828261031b565b919050565b5f67ffffffffffffffff8211156103805761037f6102ee565b5b610389826102de565b9050602081019050919050565b8281835e5f83830152505050565b5f6103b66103b184610366565b61034c565b9050828152602081018484840111156103d2576103d16102da565b5b6103dd848285610396565b509392505050565b5f82601f8301126103f9576103f86102d6565b5b81516104098482602086016103a4565b91505092915050565b5f73ffffffffffffffffffffffffffffffffffffffff82169050919050565b5f61043b82610412565b9050919050565b61044b81610431565b8114610455575f5ffd5b50565b5f8151905061046681610442565b92915050565b5f61ffff82169050919050565b6104828161046c565b811461048c575f5ffd5b50565b5f8151905061049d81610479565b92915050565b5f5f5f5f608085870312156104bb576104ba6102ce565b5b5f85015167ffffffffffffffff8111156104d8576104d76102d2565b5b6104e4878288016103e5565b945050602085015167ffffffffffffffff811115610505576105046102d2565b5b610511878288016103e5565b935050604061052287828801610458565b92505060606105338782880161048f565b91505092959194509250565b5f81519050919050565b7f4e487b71000000000000000000000000000000000000000000000000000000005f52602260045260245ffd5b5f600282049050600182168061058d57607f821691505b6020821081036105a05761059f610549565b5b50919050565b5f819050815f5260205f209050919050565b5f6020601f8301049050919050565b5f82821b905092915050565b5f600883026106027fffffffffffffffffffffffffffffffffffffffffffffffffffffffffffffffff826105c7565b61060c86836105c7565b95508019841693508086168417925050509392505050565b5f819050919050565b5f819050919050565b5f61065061064b61064684610624565b61062d565b610624565b9050919050565b5f819050919050565b61066983610636565b61067d61067582610657565b8484546105d3565b825550505050565b5f5f905090565b610694610685565b61069f818484610660565b505050565b5b818110156106c2576106b75f8261068c565b6001810190506106a5565b5050565b601f821115610707576106d8816105a6565b6106e1846105b8565b810160208510156106f0578190505b6107046106fc856105b8565b8301826106a4565b50505b505050565b5f82821c905092915050565b5f6107275f198460080261070c565b1980831691505092915050565b5f61073f8383610718565b9150826002028217905092915050565b6107588261053f565b67ffffffffffffffff811115610771576107706102ee565b5b61077b8254610576565b6107868282856106c6565b5f60209050601f8311600181146107b7575f84156107a5578287015190505b6107af8582610734565b865550610816565b601f1984166107c5866105a6565b5f5b828110156107ec578489015182556001820191506020850194506020810190506107c7565b868310156108095784890151610805601f891682610718565b8355505b6001600288020188555050505b505050505050565b61082781610431565b82525050565b5f6020820190506108405f83018461081e565b92915050565b5f82825260208201905092915050565b7f696e76616c69642066656520726563697069656e7400000000000000000000005f82015250565b5f61088a601583610846565b915061089582610856565b602082019050919050565b5f6020820190508181035f8301526108b78161087e565b9050919050565b7f66656520746f6f206869676800000000000000000000000000000000000000005f82015250565b5f6108f2600c83610846565b91506108fd826108be565b602082019050919050565b5f6020820190508181035f83015261091f816108e6565b9050919050565b6143dc806109335f395ff3fe6080604052600436106101d0575f3560e01c80638da5cb5b116100f6578063c2ed2b0511610094578063d96a094a11610063578063d96a094a14610713578063e80d7fec1461072f578063e985e9c514610757578063f2fde38b146107935761024b565b8063c2ed2b0514610645578063c87b56dd14610685578063ce783751146106c1578063d3929c8a146106e95761024b565b806395d89b41116100d057806395d89b41146105a3578063964bc33f146105cd578063a22cb465146105f5578063b88d4fde1461061d5761024b565b80638da5cb5b146105275780638fb54940146105515780639038e6931461058d5761024b565b806335adde541161016e5780636352211e1161013d5780636352211e1461047157806370a08231146104ad578063715018a6146104e957806382367b2d146104ff5761024b565b806335adde54146103a757806342842e0e146103e3578063469048401461040b5780634f6ccce7146104355761024b565b8063095ea7b3116101aa578063095ea7b3146102f157806318160ddd1461031957806323b872dd146103435780632f745c591461036b5761024b565b806301ffc9a71461024f57806306fdde031461028b578063081812fc146102b55761024b565b3661024b5734600e5f600c60029054906101000a900473ffffffffffffffffffffffffffffffffffffffff1673ffffffffffffffffffffffffffffffffffffffff1673ffffffffffffffffffffffffffffffffffffffff1681526020019081526020015f205f828254610243919061313c565b925050819055005b5f5ffd5b34801561025a575f5ffd5b50610275600480360381019061027091906131d5565b6107bb565b604051610282919061321a565b60405180910390f35b348015610296575f5ffd5b5061029f610834565b6040516102ac91906132a3565b60405180910390f35b3480156102c0575f5ffd5b506102db60048036038101906102d691906132ed565b6108c3565b6040516102e89190613357565b60405180910390f35b3480156102fc575f5ffd5b506103176004803603810190610312919061339a565b6108de565b005b348015610324575f5ffd5b5061032d6108f4565b60405161033a91906133e7565b60405180910390f35b34801561034e575f5ffd5b5061036960048036038101906103649190613400565b610900565b005b348015610376575f5ffd5b50610391600480360381019061038c919061339a565b6109ff565b60405161039e91906133e7565b60405180910390f35b3480156103b2575f5ffd5b506103cd60048036038101906103c89190613450565b610aa3565b6040516103da91906133e7565b60405180910390f35b3480156103ee575f5ffd5b5061040960048036038101906104049190613400565b610ab8565b005b348015610416575f5ffd5b5061041f610ad7565b60405161042c9190613357565b60405180910390f35b348015610440575f5ffd5b5061045b600480360381019061045691906132ed565b610afd565b60405161046891906133e7565b60405180910390f35b34801561047c575f5ffd5b50610497600480360381019061049291906132ed565b610b6f565b6040516104a49190613357565b60405180910390f35b3480156104b8575f5ffd5b506104d360048036038101906104ce9190613450565b610b80565b6040516104e091906133e7565b60405180910390f35b3480156104f4575f5ffd5b506104fd610c36565b005b34801561050a575f5ffd5b506105256004803603810190610520919061347b565b610c49565b005b348015610532575f5ffd5b5061053b610dac565b6040516105489190613357565b60405180910390f35b34801561055c575f5ffd5b5061057760048036038101906105729190613551565b610dd4565b60405161058491906133e7565b60405180910390f35b348015610598575f5ffd5b506105a1611069565b005b3480156105ae575f5ffd5b506105b7611199565b6040516105c491906132a3565b60405180910390f35b3480156105d8575f5ffd5b506105f360048036038101906105ee91906132ed565b611229565b005b348015610600575f5ffd5b5061061b600480360381019061061691906135ec565b611309565b005b348015610628575f5ffd5b50610643600480360381019061063e9190613752565b61131f565b005b348015610650575f5ffd5b5061066b600480360381019061066691906132ed565b611344565b60405161067c9594939291906137e1565b60405180910390f35b348015610690575f5ffd5b506106ab60048036038101906106a691906132ed565b611436565b6040516106b891906132a3565b60405180910390f35b3480156106cc575f5ffd5b506106e760048036038101906106e29190613839565b61154f565b005b3480156106f4575f5ffd5b506106fd6116a8565b60405161070a9190613877565b60405180910390f35b61072d600480360381019061072891906132ed565b6116bb565b005b34801561073a575f5ffd5b506107556004803603810190610750919061347b565b611a52565b005b348015610762575f5ffd5b5061077d60048036038101906107789190613890565b611b81565b60405161078a919061321a565b60405180910390f35b34801561079e575f5ffd5b506107b960048036038101906107b49190613450565b611c0f565b005b5f7f780e9d63000000000000000000000000000000000000000000000000000000007bffffffffffffffffffffffffffffffffffffffffffffffffffffffff1916827bffffffffffffffffffffffffffffffffffffffffffffffffffffffff1916148061082d575061082c82611c93565b5b9050919050565b60605f8054610842906138fb565b80601f016020809104026020016040519081016040528092919081815260200182805461086e906138fb565b80156108b95780601f10610890576101008083540402835291602001916108b9565b820191905f5260205f20905b81548152906001019060200180831161089c57829003601f168201915b5050505050905090565b5f6108cd82611d74565b506108d782611dfa565b9050919050565b6108f082826108eb611e33565b611e3a565b5050565b5f600880549050905090565b5f73ffffffffffffffffffffffffffffffffffffffff168273ffffffffffffffffffffffffffffffffffffffff1603610970575f6040517f64a0ae920000000000000000000000000000000000000000000000000000000081526004016109679190613357565b60405180910390fd5b5f610983838361097e611e33565b611e4c565b90508373ffffffffffffffffffffffffffffffffffffffff168173ffffffffffffffffffffffffffffffffffffffff16146109f9578382826040517f64283d7b0000000000000000000000000000000000000000000000000000000081526004016109f09392919061392b565b60405180910390fd5b50505050565b5f610a0983610b80565b8210610a4e5782826040517fa57d13dc000000000000000000000000000000000000000000000000000000008152600401610a45929190613960565b60405180910390fd5b60065f8473ffffffffffffffffffffffffffffffffffffffff1673ffffffffffffffffffffffffffffffffffffffff1681526020019081526020015f205f8381526020019081526020015f2054905092915050565b600e602052805f5260405f205f915090505481565b610ad283838360405180602001604052805f81525061131f565b505050565b600c60029054906101000a900473ffffffffffffffffffffffffffffffffffffffff1681565b5f610b066108f4565b8210610b4b575f826040517fa57d13dc000000000000000000000000000000000000000000000000000000008152600401610b42929190613960565b60405180910390fd5b60088281548110610b5f57610b5e613987565b5b905f5260205f2001549050919050565b5f610b7982611d74565b9050919050565b5f5f73ffffffffffffffffffffffffffffffffffffffff168273ffffffffffffffffffffffffffffffffffffffff1603610bf1575f6040517f89c62b64000000000000000000000000000000000000000000000000000000008152600401610be89190613357565b60405180910390fd5b60035f8373ffffffffffffffffffffffffffffffffffffffff1673ffffffffffffffffffffffffffffffffffffffff1681526020019081526020015f20549050919050565b610c3e611f26565b610c475f611fad565b565b3373ffffffffffffffffffffffffffffffffffffffff16610c6983610b6f565b73ffffffffffffffffffffffffffffffffffffffff1614610cbf576040517f08c379a0000000000000000000000000000000000000000000000000000000008152600401610cb6906139fe565b60405180910390fd5b5f8111610d01576040517f08c379a0000000000000000000000000000000000000000000000000000000008152600401610cf890613a66565b60405180910390fd5b5f600d5f8481526020019081526020015f2090508060010160169054906101000a900460ff16610d66576040517f08c379a0000000000000000000000000000000000000000000000000000000008152600401610d5d90613ace565b60405180910390fd5b818160020181905550827f945c1c4e99aa89f648fbfe3df471b916f719e16d960fcec0737d4d56bd69683883604051610d9f91906133e7565b60405180910390a2505050565b5f600a5f9054906101000a900473ffffffffffffffffffffffffffffffffffffffff16905090565b5f5f8585905011610e1a576040517f08c379a0000000000000000000000000000000000000000000000000000000008152600401610e1190613b36565b60405180910390fd5b6103e88361ffff161115610e63576040517f08c379a0000000000000000000000000000000000000000000000000000000008152600401610e5a90613b9e565b60405180910390fd5b5f600f5f815480929190610e7690613bbc565b919050559050610e863382612070565b6040518060a0016040528087878080601f0160208091040260200160405190810160405280939291908181526020018383808284375f81840152601f19601f8201169050808301925050505050505081526020013373ffffffffffffffffffffffffffffffffffffffff1681526020018561ffff1681526020015f85111515815260200184815250600d5f8381526020019081526020015f205f820151815f019081610f329190613da3565b506020820151816001015f6101000a81548173ffffffffffffffffffffffffffffffffffffffff021916908373ffffffffffffffffffffffffffffffffffffffff16021790555060408201518160010160146101000a81548161ffff021916908361ffff16021790555060608201518160010160166101000a81548160ff021916908315150217905550608082015181600201559050503373ffffffffffffffffffffffffffffffffffffffff16817f12023c4c04bdcc11ee6631e5aa5a5a654eb9cc1ac5814e329ab9ffcb9ac632d188888860405161101493929190613e9e565b60405180910390a35f83111561105d57807f27aebf2e0e5cf25f00bd3797d26b69f66ac7ccb85a55702906e672e9cb7d1c258460405161105491906133e7565b60405180910390a25b80915050949350505050565b61107161208d565b5f600e5f3373ffffffffffffffffffffffffffffffffffffffff1673ffffffffffffffffffffffffffffffffffffffff1681526020019081526020015f205490505f81116110f4576040517f08c379a00000000000000000000000000000000000000000000000000000000081526004016110eb90613f18565b60405180910390fd5b5f600e5f3373ffffffffffffffffffffffffffffffffffffffff1673ffffffffffffffffffffffffffffffffffffffff1681526020019081526020015f208190555061114033826120d3565b3373ffffffffffffffffffffffffffffffffffffffff167f0f2fb75cc1977a496e94837f859e957f68e26e70dc1b75d9945ee92ae57969ba8260405161118691906133e7565b60405180910390a250611197612199565b565b6060600180546111a8906138fb565b80601f01602080910402602001604051908101604052809291908181526020018280546111d4906138fb565b801561121f5780601f106111f65761010080835404028352916020019161121f565b820191905f5260205f20905b81548152906001019060200180831161120257829003601f168201915b5050505050905090565b3373ffffffffffffffffffffffffffffffffffffffff1661124982610b6f565b73ffffffffffffffffffffffffffffffffffffffff161461129f576040517f08c379a0000000000000000000000000000000000000000000000000000000008152600401611296906139fe565b60405180910390fd5b5f600d5f8381526020019081526020015f2090505f8160010160166101000a81548160ff0219169083151502179055505f8160020181905550817fc40fdc946efe80191c467f60727c4abc08254a056035d467a4516a86005ab76360405160405180910390a25050565b61131b611314611e33565b83836121a3565b5050565b61132a848484610900565b61133e611335611e33565b8585858561230c565b50505050565b600d602052805f5260405f205f91509050805f018054611363906138fb565b80601f016020809104026020016040519081016040528092919081815260200182805461138f906138fb565b80156113da5780601f106113b1576101008083540402835291602001916113da565b820191905f5260205f20905b8154815290600101906020018083116113bd57829003601f168201915b505050505090806001015f9054906101000a900473ffffffffffffffffffffffffffffffffffffffff16908060010160149054906101000a900461ffff16908060010160169054906101000a900460ff16908060020154905085565b60605f73ffffffffffffffffffffffffffffffffffffffff16611458836124b8565b73ffffffffffffffffffffffffffffffffffffffff16036114ae576040517f08c379a00000000000000000000000000000000000000000000000000000000081526004016114a590613f80565b60405180910390fd5b600d5f8381526020019081526020015f205f0180546114cc906138fb565b80601f01602080910402602001604051908101604052809291908181526020018280546114f8906138fb565b80156115435780601f1061151a57610100808354040283529160200191611543565b820191905f5260205f20905b81548152906001019060200180831161152657829003601f168201915b50505050509050919050565b611557611f26565b5f73ffffffffffffffffffffffffffffffffffffffff168173ffffffffffffffffffffffffffffffffffffffff16036115c5576040517f08c379a00000000000000000000000000000000000000000000000000000000081526004016115bc90613fe8565b60405180910390fd5b6107d08261ffff16111561160e576040517f08c379a000000000000000000000000000000000000000000000000000000000815260040161160590614050565b60405180910390fd5b81600c5f6101000a81548161ffff021916908361ffff16021790555080600c60026101000a81548173ffffffffffffffffffffffffffffffffffffffff021916908373ffffffffffffffffffffffffffffffffffffffff1602179055507f10c211fa70c6d17ff2a9ca3f0d6dffbc7eac2a8ba0a9d18343d4b219719a73b9828260405161169c92919061406e565b60405180910390a15050565b600c5f9054906101000a900461ffff1681565b6116c361208d565b5f600d5f8381526020019081526020015f2090508060010160169054906101000a900460ff16611728576040517f08c379a000000000000000000000000000000000000000000000000000000000815260040161171f906140df565b60405180910390fd5b5f8160020154905080341015611773576040517f08c379a000000000000000000000000000000000000000000000000000000000815260040161176a90614147565b60405180910390fd5b5f61177d84610b6f565b90505f836001015f9054906101000a900473ffffffffffffffffffffffffffffffffffffffff1690505f8460010160149054906101000a900461ffff1690505f8560010160166101000a81548160ff0219169083151502179055505f85600201819055505f612710600c5f9054906101000a900461ffff1661ffff16866118049190614165565b61180e91906141d3565b90505f6127108361ffff16876118249190614165565b61182e91906141d3565b90505f81838861183e9190614203565b6118489190614203565b90505f8311156118c85782600e5f600c60029054906101000a900473ffffffffffffffffffffffffffffffffffffffff1673ffffffffffffffffffffffffffffffffffffffff1673ffffffffffffffffffffffffffffffffffffffff1681526020019081526020015f205f8282546118c0919061313c565b925050819055505b5f8211801561190357505f73ffffffffffffffffffffffffffffffffffffffff168573ffffffffffffffffffffffffffffffffffffffff1614155b1561195c5781600e5f8773ffffffffffffffffffffffffffffffffffffffff1673ffffffffffffffffffffffffffffffffffffffff1681526020019081526020015f205f828254611954919061313c565b925050819055505b5f8111156119b85780600e5f8873ffffffffffffffffffffffffffffffffffffffff1673ffffffffffffffffffffffffffffffffffffffff1681526020019081526020015f205f8282546119b0919061313c565b925050819055505b6119d286338b60405180602001604052805f8152506124f1565b863411156119f0576119ef3388346119ea9190614203565b6120d3565b5b3373ffffffffffffffffffffffffffffffffffffffff16897f856c3ca3096793f78585d17ad8f83d4f62f76787885d2175469aaafe89e70ec089604051611a3791906133e7565b60405180910390a35050505050505050611a4f612199565b50565b3373ffffffffffffffffffffffffffffffffffffffff16611a7283610b6f565b73ffffffffffffffffffffffffffffffffffffffff1614611ac8576040517f08c379a0000000000000000000000000000000000000000000000000000000008152600401611abf906139fe565b60405180910390fd5b5f8111611b0a576040517f08c379a0000000000000000000000000000000000000000000000000000000008152600401611b0190613a66565b60405180910390fd5b5f600d5f8481526020019081526020015f20905060018160010160166101000a81548160ff021916908315150217905550818160020181905550827f27aebf2e0e5cf25f00bd3797d26b69f66ac7ccb85a55702906e672e9cb7d1c2583604051611b7491906133e7565b60405180910390a2505050565b5f60055f8473ffffffffffffffffffffffffffffffffffffffff1673ffffffffffffffffffffffffffffffffffffffff1681526020019081526020015f205f8373ffffffffffffffffffffffffffffffffffffffff1673ffffffffffffffffffffffffffffffffffffffff1681526020019081526020015f205f9054906101000a900460ff16905092915050565b611c17611f26565b5f73ffffffffffffffffffffffffffffffffffffffff168173ffffffffffffffffffffffffffffffffffffffff1603611c87575f6040517f1e4fbdf7000000000000000000000000000000000000000000000000000000008152600401611c7e9190613357565b60405180910390fd5b611c9081611fad565b50565b5f7f80ac58cd000000000000000000000000000000000000000000000000000000007bffffffffffffffffffffffffffffffffffffffffffffffffffffffff1916827bffffffffffffffffffffffffffffffffffffffffffffffffffffffff19161480611d5d57507f5b5e139f000000000000000000000000000000000000000000000000000000007bffffffffffffffffffffffffffffffffffffffffffffffffffffffff1916827bffffffffffffffffffffffffffffffffffffffffffffffffffffffff1916145b80611d6d5750611d6c82612516565b5b9050919050565b5f5f611d7f836124b8565b90505f73ffffffffffffffffffffffffffffffffffffffff168173ffffffffffffffffffffffffffffffffffffffff1603611df157826040517f7e273289000000000000000000000000000000000000000000000000000000008152600401611de891906133e7565b60405180910390fd5b80915050919050565b5f60045f8381526020019081526020015f205f9054906101000a900473ffffffffffffffffffffffffffffffffffffffff169050919050565b5f33905090565b611e47838383600161257f565b505050565b5f5f611e57846124b8565b90505f611e6586868661273e565b90505f73ffffffffffffffffffffffffffffffffffffffff168273ffffffffffffffffffffffffffffffffffffffff1614611f1a575f600d5f8781526020019081526020015f2090508060010160169054906101000a900460ff1615611f18575f8160010160166101000a81548160ff0219169083151502179055505f8160020181905550857fc40fdc946efe80191c467f60727c4abc08254a056035d467a4516a86005ab76360405160405180910390a25b505b80925050509392505050565b611f2e611e33565b73ffffffffffffffffffffffffffffffffffffffff16611f4c610dac565b73ffffffffffffffffffffffffffffffffffffffff1614611fab57611f6f611e33565b6040517f118cdaa7000000000000000000000000000000000000000000000000000000008152600401611fa29190613357565b60405180910390fd5b565b5f600a5f9054906101000a900473ffffffffffffffffffffffffffffffffffffffff16905081600a5f6101000a81548173ffffffffffffffffffffffffffffffffffffffff021916908373ffffffffffffffffffffffffffffffffffffffff1602179055508173ffffffffffffffffffffffffffffffffffffffff168173ffffffffffffffffffffffffffffffffffffffff167f8be0079c531659141344cd1fd0a4f28419497f9722a3daafe3b4186f6b6457e060405160405180910390a35050565b612089828260405180602001604052805f815250612858565b5050565b6002600b54036120c9576040517f3ee5aeb500000000000000000000000000000000000000000000000000000000815260040160405180910390fd5b6002600b81905550565b8047101561211a5747816040517fcf479181000000000000000000000000000000000000000000000000000000008152600401612111929190614236565b60405180910390fd5b5f5f8373ffffffffffffffffffffffffffffffffffffffff16836040516121409061428a565b5f6040518083038185875af1925050503d805f811461217a576040519150601f19603f3d011682016040523d82523d5f602084013e61217f565b606091505b509150915081612193576121928161287b565b5b50505050565b6001600b81905550565b5f73ffffffffffffffffffffffffffffffffffffffff168273ffffffffffffffffffffffffffffffffffffffff160361221357816040517f5b08ba1800000000000000000000000000000000000000000000000000000000815260040161220a9190613357565b60405180910390fd5b8060055f8573ffffffffffffffffffffffffffffffffffffffff1673ffffffffffffffffffffffffffffffffffffffff1681526020019081526020015f205f8473ffffffffffffffffffffffffffffffffffffffff1673ffffffffffffffffffffffffffffffffffffffff1681526020019081526020015f205f6101000a81548160ff0219169083151502179055508173ffffffffffffffffffffffffffffffffffffffff168373ffffffffffffffffffffffffffffffffffffffff167f17307eab39ab6107e8899845ad3d59bd9653f200f220920489ca2b5937696c31836040516122ff919061321a565b60405180910390a3505050565b5f8373ffffffffffffffffffffffffffffffffffffffff163b11156124b1578273ffffffffffffffffffffffffffffffffffffffff1663150b7a02868685856040518563ffffffff1660e01b815260040161236a94939291906142f0565b6020604051808303815f875af19250505080156123a557506040513d601f19601f820116820180604052508101906123a2919061434e565b60015b612426573d805f81146123d3576040519150601f19603f3d011682016040523d82523d5f602084013e6123d8565b606091505b505f81510361241e57836040517f64a0ae920000000000000000000000000000000000000000000000000000000081526004016124159190613357565b60405180910390fd5b805160208201fd5b63150b7a0260e01b7bffffffffffffffffffffffffffffffffffffffffffffffffffffffff1916817bffffffffffffffffffffffffffffffffffffffffffffffffffffffff1916146124af57836040517f64a0ae920000000000000000000000000000000000000000000000000000000081526004016124a69190613357565b60405180910390fd5b505b5050505050565b5f60025f8381526020019081526020015f205f9054906101000a900473ffffffffffffffffffffffffffffffffffffffff169050919050565b6124fc8484846128be565b612510612507611e33565b8585858561230c565b50505050565b5f7f01ffc9a7000000000000000000000000000000000000000000000000000000007bffffffffffffffffffffffffffffffffffffffffffffffffffffffff1916827bffffffffffffffffffffffffffffffffffffffffffffffffffffffff1916149050919050565b80806125b757505f73ffffffffffffffffffffffffffffffffffffffff168273ffffffffffffffffffffffffffffffffffffffff1614155b156126e9575f6125c684611d74565b90505f73ffffffffffffffffffffffffffffffffffffffff168373ffffffffffffffffffffffffffffffffffffffff161415801561263057508273ffffffffffffffffffffffffffffffffffffffff168173ffffffffffffffffffffffffffffffffffffffff1614155b801561264357506126418184611b81565b155b1561268557826040517fa9fbf51f00000000000000000000000000000000000000000000000000000000815260040161267c9190613357565b60405180910390fd5b81156126e757838573ffffffffffffffffffffffffffffffffffffffff168273ffffffffffffffffffffffffffffffffffffffff167f8c5be1e5ebec7d5bd14f71427d1e84f3dd0314c0f7b2291e5b200ac8c7c3b92560405160405180910390a45b505b8360045f8581526020019081526020015f205f6101000a81548173ffffffffffffffffffffffffffffffffffffffff021916908373ffffffffffffffffffffffffffffffffffffffff16021790555050505050565b5f5f61274b858585612a26565b90505f73ffffffffffffffffffffffffffffffffffffffff168173ffffffffffffffffffffffffffffffffffffffff160361278e5761278984612c31565b6127cd565b8473ffffffffffffffffffffffffffffffffffffffff168173ffffffffffffffffffffffffffffffffffffffff16146127cc576127cb8185612c75565b5b5b5f73ffffffffffffffffffffffffffffffffffffffff168573ffffffffffffffffffffffffffffffffffffffff160361280e5761280984612d4c565b61284d565b8473ffffffffffffffffffffffffffffffffffffffff168173ffffffffffffffffffffffffffffffffffffffff161461284c5761284b8585612e0c565b5b5b809150509392505050565b6128628383612e90565b61287661286d611e33565b5f85858561230c565b505050565b5f8151111561288c57805160208201fd5b6040517fd6bda27500000000000000000000000000000000000000000000000000000000815260040160405180910390fd5b5f73ffffffffffffffffffffffffffffffffffffffff168273ffffffffffffffffffffffffffffffffffffffff160361292e575f6040517f64a0ae920000000000000000000000000000000000000000000000000000000081526004016129259190613357565b60405180910390fd5b5f61293a83835f611e4c565b90505f73ffffffffffffffffffffffffffffffffffffffff168173ffffffffffffffffffffffffffffffffffffffff16036129ac57816040517f7e2732890000000000000000000000000000000000000000000000000000000081526004016129a391906133e7565b60405180910390fd5b8373ffffffffffffffffffffffffffffffffffffffff168173ffffffffffffffffffffffffffffffffffffffff1614612a20578382826040517f64283d7b000000000000000000000000000000000000000000000000000000008152600401612a179392919061392b565b60405180910390fd5b50505050565b5f5f612a31846124b8565b90505f73ffffffffffffffffffffffffffffffffffffffff168373ffffffffffffffffffffffffffffffffffffffff1614612a7257612a71818486612f83565b5b5f73ffffffffffffffffffffffffffffffffffffffff168173ffffffffffffffffffffffffffffffffffffffff1614612afd57612ab15f855f5f61257f565b600160035f8373ffffffffffffffffffffffffffffffffffffffff1673ffffffffffffffffffffffffffffffffffffffff1681526020019081526020015f205f82825403925050819055505b5f73ffffffffffffffffffffffffffffffffffffffff168573ffffffffffffffffffffffffffffffffffffffff1614612b7c57600160035f8773ffffffffffffffffffffffffffffffffffffffff1673ffffffffffffffffffffffffffffffffffffffff1681526020019081526020015f205f82825401925050819055505b8460025f8681526020019081526020015f205f6101000a81548173ffffffffffffffffffffffffffffffffffffffff021916908373ffffffffffffffffffffffffffffffffffffffff160217905550838573ffffffffffffffffffffffffffffffffffffffff168273ffffffffffffffffffffffffffffffffffffffff167fddf252ad1be2c89b69c2b068fc378daa952ba7f163c4a11628f55a4df523b3ef60405160405180910390a4809150509392505050565b60088054905060095f8381526020019081526020015f2081905550600881908060018154018082558091505060019003905f5260205f20015f909190919091505550565b5f612c7f83610b80565b90505f60075f8481526020019081526020015f205490505f60065f8673ffffffffffffffffffffffffffffffffffffffff1673ffffffffffffffffffffffffffffffffffffffff1681526020019081526020015f209050828214612d1e575f815f8581526020019081526020015f2054905080825f8581526020019081526020015f20819055508260075f8381526020019081526020015f2081905550505b60075f8581526020019081526020015f205f9055805f8481526020019081526020015f205f90555050505050565b5f6001600880549050612d5f9190614203565b90505f60095f8481526020019081526020015f205490505f60088381548110612d8b57612d8a613987565b5b905f5260205f20015490508060088381548110612dab57612daa613987565b5b905f5260205f2001819055508160095f8381526020019081526020015f208190555060095f8581526020019081526020015f205f90556008805480612df357612df2614379565b5b600190038181905f5260205f20015f9055905550505050565b5f6001612e1884610b80565b612e229190614203565b90508160065f8573ffffffffffffffffffffffffffffffffffffffff1673ffffffffffffffffffffffffffffffffffffffff1681526020019081526020015f205f8381526020019081526020015f20819055508060075f8481526020019081526020015f2081905550505050565b5f73ffffffffffffffffffffffffffffffffffffffff168273ffffffffffffffffffffffffffffffffffffffff1603612f00575f6040517f64a0ae92000000000000000000000000000000000000000000000000000000008152600401612ef79190613357565b60405180910390fd5b5f612f0c83835f611e4c565b90505f73ffffffffffffffffffffffffffffffffffffffff168173ffffffffffffffffffffffffffffffffffffffff1614612f7e575f6040517f73c6ac6e000000000000000000000000000000000000000000000000000000008152600401612f759190613357565b60405180910390fd5b505050565b612f8e838383613046565b613041575f73ffffffffffffffffffffffffffffffffffffffff168373ffffffffffffffffffffffffffffffffffffffff160361300257806040517f7e273289000000000000000000000000000000000000000000000000000000008152600401612ff991906133e7565b60405180910390fd5b81816040517f177e802f000000000000000000000000000000000000000000000000000000008152600401613038929190613960565b60405180910390fd5b505050565b5f5f73ffffffffffffffffffffffffffffffffffffffff168373ffffffffffffffffffffffffffffffffffffffff16141580156130fd57508273ffffffffffffffffffffffffffffffffffffffff168473ffffffffffffffffffffffffffffffffffffffff1614806130be57506130bd8484611b81565b5b806130fc57508273ffffffffffffffffffffffffffffffffffffffff166130e483611dfa565b73ffffffffffffffffffffffffffffffffffffffff16145b5b90509392505050565b5f819050919050565b7f4e487b71000000000000000000000000000000000000000000000000000000005f52601160045260245ffd5b5f61314682613106565b915061315183613106565b92508282019050808211156131695761316861310f565b5b92915050565b5f604051905090565b5f5ffd5b5f5ffd5b5f7fffffffff0000000000000000000000000000000000000000000000000000000082169050919050565b6131b481613180565b81146131be575f5ffd5b50565b5f813590506131cf816131ab565b92915050565b5f602082840312156131ea576131e9613178565b5b5f6131f7848285016131c1565b91505092915050565b5f8115159050919050565b61321481613200565b82525050565b5f60208201905061322d5f83018461320b565b92915050565b5f81519050919050565b5f82825260208201905092915050565b8281835e5f83830152505050565b5f601f19601f8301169050919050565b5f61327582613233565b61327f818561323d565b935061328f81856020860161324d565b6132988161325b565b840191505092915050565b5f6020820190508181035f8301526132bb818461326b565b905092915050565b6132cc81613106565b81146132d6575f5ffd5b50565b5f813590506132e7816132c3565b92915050565b5f6020828403121561330257613301613178565b5b5f61330f848285016132d9565b91505092915050565b5f73ffffffffffffffffffffffffffffffffffffffff82169050919050565b5f61334182613318565b9050919050565b61335181613337565b82525050565b5f60208201905061336a5f830184613348565b92915050565b61337981613337565b8114613383575f5ffd5b50565b5f8135905061339481613370565b92915050565b5f5f604083850312156133b0576133af613178565b5b5f6133bd85828601613386565b92505060206133ce858286016132d9565b9150509250929050565b6133e181613106565b82525050565b5f6020820190506133fa5f8301846133d8565b92915050565b5f5f5f6060848603121561341757613416613178565b5b5f61342486828701613386565b935050602061343586828701613386565b9250506040613446868287016132d9565b9150509250925092565b5f6020828403121561346557613464613178565b5b5f61347284828501613386565b91505092915050565b5f5f6040838503121561349157613490613178565b5b5f61349e858286016132d9565b92505060206134af858286016132d9565b9150509250929050565b5f5ffd5b5f5ffd5b5f5ffd5b5f5f83601f8401126134da576134d96134b9565b5b8235905067ffffffffffffffff8111156134f7576134f66134bd565b5b602083019150836001820283011115613513576135126134c1565b5b9250929050565b5f61ffff82169050919050565b6135308161351a565b811461353a575f5ffd5b50565b5f8135905061354b81613527565b92915050565b5f5f5f5f6060858703121561356957613568613178565b5b5f85013567ffffffffffffffff8111156135865761358561317c565b5b613592878288016134c5565b945094505060206135a58782880161353d565b92505060406135b6878288016132d9565b91505092959194509250565b6135cb81613200565b81146135d5575f5ffd5b50565b5f813590506135e6816135c2565b92915050565b5f5f6040838503121561360257613601613178565b5b5f61360f85828601613386565b9250506020613620858286016135d8565b9150509250929050565b5f5ffd5b7f4e487b71000000000000000000000000000000000000000000000000000000005f52604160045260245ffd5b6136648261325b565b810181811067ffffffffffffffff821117156136835761368261362e565b5b80604052505050565b5f61369561316f565b90506136a1828261365b565b919050565b5f67ffffffffffffffff8211156136c0576136bf61362e565b5b6136c98261325b565b9050602081019050919050565b828183375f83830152505050565b5f6136f66136f1846136a6565b61368c565b9050828152602081018484840111156137125761371161362a565b5b61371d8482856136d6565b509392505050565b5f82601f830112613739576137386134b9565b5b81356137498482602086016136e4565b91505092915050565b5f5f5f5f6080858703121561376a57613769613178565b5b5f61377787828801613386565b945050602061378887828801613386565b9350506040613799878288016132d9565b925050606085013567ffffffffffffffff8111156137ba576137b961317c565b5b6137c687828801613725565b91505092959194509250565b6137db8161351a565b82525050565b5f60a0820190508181035f8301526137f9818861326b565b90506138086020830187613348565b61381560408301866137d2565b613822606083018561320b565b61382f60808301846133d8565b9695505050505050565b5f5f6040838503121561384f5761384e613178565b5b5f61385c8582860161353d565b925050602061386d85828601613386565b9150509250929050565b5f60208201905061388a5f8301846137d2565b92915050565b5f5f604083850312156138a6576138a5613178565b5b5f6138b385828601613386565b92505060206138c485828601613386565b9150509250929050565b7f4e487b71000000000000000000000000000000000000000000000000000000005f52602260045260245ffd5b5f600282049050600182168061391257607f821691505b602082108103613925576139246138ce565b5b50919050565b5f60608201905061393e5f830186613348565b61394b60208301856133d8565b6139586040830184613348565b949350505050565b5f6040820190506139735f830185613348565b61398060208301846133d8565b9392505050565b7f4e487b71000000000000000000000000000000000000000000000000000000005f52603260045260245ffd5b7f6e6f74206f776e657200000000000000000000000000000000000000000000005f82015250565b5f6139e860098361323d565b91506139f3826139b4565b602082019050919050565b5f6020820190508181035f830152613a15816139dc565b9050919050565b7f70726963652030000000000000000000000000000000000000000000000000005f82015250565b5f613a5060078361323d565b9150613a5b82613a1c565b602082019050919050565b5f6020820190508181035f830152613a7d81613a44565b9050919050565b7f6e6f74206c6973746564000000000000000000000000000000000000000000005f82015250565b5f613ab8600a8361323d565b9150613ac382613a84565b602082019050919050565b5f6020820190508181035f830152613ae581613aac565b9050919050565b7f656d7074792075726900000000000000000000000000000000000000000000005f82015250565b5f613b2060098361323d565b9150613b2b82613aec565b602082019050919050565b5f6020820190508181035f830152613b4d81613b14565b9050919050565b7f726f79616c747920746f6f2068696768000000000000000000000000000000005f82015250565b5f613b8860108361323d565b9150613b9382613b54565b602082019050919050565b5f6020820190508181035f830152613bb581613b7c565b9050919050565b5f613bc682613106565b91507fffffffffffffffffffffffffffffffffffffffffffffffffffffffffffffffff8203613bf857613bf761310f565b5b600182019050919050565b5f819050815f5260205f209050919050565b5f6020601f8301049050919050565b5f82821b905092915050565b5f60088302613c5f7fffffffffffffffffffffffffffffffffffffffffffffffffffffffffffffffff82613c24565b613c698683613c24565b95508019841693508086168417925050509392505050565b5f819050919050565b5f613ca4613c9f613c9a84613106565b613c81565b613106565b9050919050565b5f819050919050565b613cbd83613c8a565b613cd1613cc982613cab565b848454613c30565b825550505050565b5f5f905090565b613ce8613cd9565b613cf3818484613cb4565b505050565b5b81811015613d1657613d0b5f82613ce0565b600181019050613cf9565b5050565b601f821115613d5b57613d2c81613c03565b613d3584613c15565b81016020851015613d44578190505b613d58613d5085613c15565b830182613cf8565b50505b505050565b5f82821c905092915050565b5f613d7b5f1984600802613d60565b1980831691505092915050565b5f613d938383613d6c565b9150826002028217905092915050565b613dac82613233565b67ffffffffffffffff811115613dc557613dc461362e565b5b613dcf82546138fb565b613dda828285613d1a565b5f60209050601f831160018114613e0b575f8415613df9578287015190505b613e038582613d88565b865550613e6a565b601f198416613e1986613c03565b5f5b82811015613e4057848901518255600182019150602085019450602081019050613e1b565b86831015613e5d5784890151613e59601f891682613d6c565b8355505b6001600288020188555050505b505050505050565b5f613e7d838561323d565b9350613e8a8385846136d6565b613e938361325b565b840190509392505050565b5f6040820190508181035f830152613eb7818587613e72565b9050613ec660208301846137d2565b949350505050565b7f6e6f2070726f63656564730000000000000000000000000000000000000000005f82015250565b5f613f02600b8361323d565b9150613f0d82613ece565b602082019050919050565b5f6020820190508181035f830152613f2f81613ef6565b9050919050565b7f6e6f6e6578697374656e740000000000000000000000000000000000000000005f82015250565b5f613f6a600b8361323d565b9150613f7582613f36565b602082019050919050565b5f6020820190508181035f830152613f9781613f5e565b9050919050565b7f696e76616c696420726563697069656e740000000000000000000000000000005f82015250565b5f613fd260118361323d565b9150613fdd82613f9e565b602082019050919050565b5f6020820190508181035f830152613fff81613fc6565b9050919050565b7f66656520746f6f206869676800000000000000000000000000000000000000005f82015250565b5f61403a600c8361323d565b915061404582614006565b602082019050919050565b5f6020820190508181035f8301526140678161402e565b9050919050565b5f6040820190506140815f8301856137d2565b61408e6020830184613348565b9392505050565b7f6e6f7420666f722073616c6500000000000000000000000000000000000000005f82015250565b5f6140c9600c8361323d565b91506140d482614095565b602082019050919050565b5f6020820190508181035f8301526140f6816140bd565b9050919050565b7f696e73756666696369656e74207061796d656e740000000000000000000000005f82015250565b5f61413160148361323d565b915061413c826140fd565b602082019050919050565b5f6020820190508181035f83015261415e81614125565b9050919050565b5f61416f82613106565b915061417a83613106565b925082820261418881613106565b9150828204841483151761419f5761419e61310f565b5b5092915050565b7f4e487b71000000000000000000000000000000000000000000000000000000005f52601260045260245ffd5b5f6141dd82613106565b91506141e883613106565b9250826141f8576141f76141a6565b5b828204905092915050565b5f61420d82613106565b915061421883613106565b92508282039050818111156142305761422f61310f565b5b92915050565b5f6040820190506142495f8301856133d8565b61425660208301846133d8565b9392505050565b5f81905092915050565b50565b5f6142755f8361425d565b915061428082614267565b5f82019050919050565b5f6142948261426a565b9150819050919050565b5f81519050919050565b5f82825260208201905092915050565b5f6142c28261429e565b6142cc81856142a8565b93506142dc81856020860161324d565b6142e58161325b565b840191505092915050565b5f6080820190506143035f830187613348565b6143106020830186613348565b61431d60408301856133d8565b818103606083015261432f81846142b8565b905095945050505050565b5f81519050614348816131ab565b92915050565b5f6020828403121561436357614362613178565b5b5f6143708482850161433a565b91505092915050565b7f4e487b71000000000000000000000000000000000000000000000000000000005f52603160045260245ffdfea26469706673582212201f3e75c801aa1e418d65286c8fecd0d1367b2fd469740c3a9dc367e8611cadae64736f6c634300081c0033",
  "linkReferences": {},
  "deployedLinkReferences": {},
  "immutableReferences": {},
  "inputSourceName": "project/contracts/DocumentMarketplace.sol",
  "buildInfoId": "solc-0_8_28-0462cf47ac67127eb5c0d57dca940a4f03ecaaef"
}